{
  "_format": "hh-sol-artifact-1",
  "contractName": "Fuckawaii",
  "sourceName": "contracts/Fuckawaii.sol",
  "abi": [
    {
      "inputs": [],
      "stateMutability": "nonpayable",
      "type": "constructor"
    },
    {
      "inputs": [],
      "name": "ApprovalCallerNotOwnerNorApproved",
      "type": "error"
    },
    {
      "inputs": [],
      "name": "ApprovalQueryForNonexistentToken",
      "type": "error"
    },
    {
      "inputs": [],
      "name": "ApprovalToCurrentOwner",
      "type": "error"
    },
    {
      "inputs": [],
      "name": "ApproveToCaller",
      "type": "error"
    },
    {
      "inputs": [],
      "name": "BalanceQueryForZeroAddress",
      "type": "error"
    },
    {
      "inputs": [],
      "name": "MintToZeroAddress",
      "type": "error"
    },
    {
      "inputs": [],
      "name": "MintZeroQuantity",
      "type": "error"
    },
    {
      "inputs": [],
      "name": "OwnerIndexOutOfBounds",
      "type": "error"
    },
    {
      "inputs": [],
      "name": "OwnerQueryForNonexistentToken",
      "type": "error"
    },
    {
      "inputs": [],
      "name": "TokenIndexOutOfBounds",
      "type": "error"
    },
    {
      "inputs": [],
      "name": "TransferCallerNotOwnerNorApproved",
      "type": "error"
    },
    {
      "inputs": [],
      "name": "TransferFromIncorrectOwner",
      "type": "error"
    },
    {
      "inputs": [],
      "name": "TransferToNonERC721ReceiverImplementer",
      "type": "error"
    },
    {
      "inputs": [],
      "name": "TransferToZeroAddress",
      "type": "error"
    },
    {
      "anonymous": false,
      "inputs": [
        {
          "indexed": true,
          "internalType": "address",
          "name": "owner",
          "type": "address"
        },
        {
          "indexed": true,
          "internalType": "address",
          "name": "approved",
          "type": "address"
        },
        {
          "indexed": true,
          "internalType": "uint256",
          "name": "tokenId",
          "type": "uint256"
        }
      ],
      "name": "Approval",
      "type": "event"
    },
    {
      "anonymous": false,
      "inputs": [
        {
          "indexed": true,
          "internalType": "address",
          "name": "owner",
          "type": "address"
        },
        {
          "indexed": true,
          "internalType": "address",
          "name": "operator",
          "type": "address"
        },
        {
          "indexed": false,
          "internalType": "bool",
          "name": "approved",
          "type": "bool"
        }
      ],
      "name": "ApprovalForAll",
      "type": "event"
    },
    {
      "anonymous": false,
      "inputs": [
        {
          "indexed": true,
          "internalType": "address",
          "name": "previousOwner",
          "type": "address"
        },
        {
          "indexed": true,
          "internalType": "address",
          "name": "newOwner",
          "type": "address"
        }
      ],
      "name": "OwnershipTransferred",
      "type": "event"
    },
    {
      "anonymous": false,
      "inputs": [
        {
          "indexed": true,
          "internalType": "address",
          "name": "from",
          "type": "address"
        },
        {
          "indexed": true,
          "internalType": "address",
          "name": "to",
          "type": "address"
        },
        {
          "indexed": true,
          "internalType": "uint256",
          "name": "tokenId",
          "type": "uint256"
        }
      ],
      "name": "Transfer",
      "type": "event"
    },
    {
      "inputs": [],
      "name": "FREE_MINTS_PER_TX",
      "outputs": [
        {
          "internalType": "uint256",
          "name": "",
          "type": "uint256"
        }
      ],
      "stateMutability": "view",
      "type": "function"
    },
    {
      "inputs": [],
      "name": "MAX_MINTS_PER_TX",
      "outputs": [
        {
          "internalType": "uint256",
          "name": "",
          "type": "uint256"
        }
      ],
      "stateMutability": "view",
      "type": "function"
    },
    {
      "inputs": [],
      "name": "PUBLIC_SALE_PRICE",
      "outputs": [
        {
          "internalType": "uint256",
          "name": "",
          "type": "uint256"
        }
      ],
      "stateMutability": "view",
      "type": "function"
    },
    {
      "inputs": [],
      "name": "TOTAL_FREE_MINTS",
      "outputs": [
        {
          "internalType": "uint256",
          "name": "",
          "type": "uint256"
        }
      ],
      "stateMutability": "view",
      "type": "function"
    },
    {
      "inputs": [
        {
          "internalType": "address",
          "name": "to",
          "type": "address"
        },
        {
          "internalType": "uint256",
          "name": "tokenId",
          "type": "uint256"
        }
      ],
      "name": "approve",
      "outputs": [],
      "stateMutability": "nonpayable",
      "type": "function"
    },
    {
      "inputs": [
        {
          "internalType": "address",
          "name": "owner",
          "type": "address"
        }
      ],
      "name": "balanceOf",
      "outputs": [
        {
          "internalType": "uint256",
          "name": "",
          "type": "uint256"
        }
      ],
      "stateMutability": "view",
      "type": "function"
    },
    {
      "inputs": [],
      "name": "baseTokenURI",
      "outputs": [
        {
          "internalType": "string",
          "name": "",
          "type": "string"
        }
      ],
      "stateMutability": "view",
      "type": "function"
    },
    {
      "inputs": [
        {
          "internalType": "uint256",
          "name": "tokenId",
          "type": "uint256"
        }
      ],
      "name": "getApproved",
      "outputs": [
        {
          "internalType": "address",
          "name": "",
          "type": "address"
        }
      ],
      "stateMutability": "view",
      "type": "function"
    },
    {
      "inputs": [
        {
          "internalType": "address",
          "name": "owner",
          "type": "address"
        },
        {
          "internalType": "address",
          "name": "operator",
          "type": "address"
        }
      ],
      "name": "isApprovedForAll",
      "outputs": [
        {
          "internalType": "bool",
          "name": "",
          "type": "bool"
        }
      ],
      "stateMutability": "view",
      "type": "function"
    },
    {
      "inputs": [],
      "name": "isPublicSaleActive",
      "outputs": [
        {
          "internalType": "bool",
          "name": "",
          "type": "bool"
        }
      ],
      "stateMutability": "view",
      "type": "function"
    },
    {
      "inputs": [],
      "name": "maxSupply",
      "outputs": [
        {
          "internalType": "uint256",
          "name": "",
          "type": "uint256"
        }
      ],
      "stateMutability": "view",
      "type": "function"
    },
    {
      "inputs": [
        {
          "internalType": "uint256",
          "name": "numberOfTokens",
          "type": "uint256"
        }
      ],
      "name": "mint",
      "outputs": [],
      "stateMutability": "payable",
      "type": "function"
    },
    {
      "inputs": [],
      "name": "name",
      "outputs": [
        {
          "internalType": "string",
          "name": "",
          "type": "string"
        }
      ],
      "stateMutability": "view",
      "type": "function"
    },
    {
      "inputs": [],
      "name": "owner",
      "outputs": [
        {
          "internalType": "address",
          "name": "",
          "type": "address"
        }
      ],
      "stateMutability": "view",
      "type": "function"
    },
    {
      "inputs": [
        {
          "internalType": "uint256",
          "name": "tokenId",
          "type": "uint256"
        }
      ],
      "name": "ownerOf",
      "outputs": [
        {
          "internalType": "address",
          "name": "",
          "type": "address"
        }
      ],
      "stateMutability": "view",
      "type": "function"
    },
    {
      "inputs": [],
      "name": "renounceOwnership",
      "outputs": [],
      "stateMutability": "nonpayable",
      "type": "function"
    },
    {
      "inputs": [
        {
          "internalType": "address",
          "name": "from",
          "type": "address"
        },
        {
          "internalType": "address",
          "name": "to",
          "type": "address"
        },
        {
          "internalType": "uint256",
          "name": "tokenId",
          "type": "uint256"
        }
      ],
      "name": "safeTransferFrom",
      "outputs": [],
      "stateMutability": "nonpayable",
      "type": "function"
    },
    {
      "inputs": [
        {
          "internalType": "address",
          "name": "from",
          "type": "address"
        },
        {
          "internalType": "address",
          "name": "to",
          "type": "address"
        },
        {
          "internalType": "uint256",
          "name": "tokenId",
          "type": "uint256"
        },
        {
          "internalType": "bytes",
          "name": "_data",
          "type": "bytes"
        }
      ],
      "name": "safeTransferFrom",
      "outputs": [],
      "stateMutability": "nonpayable",
      "type": "function"
    },
    {
      "inputs": [
        {
          "internalType": "address",
          "name": "operator",
          "type": "address"
        },
        {
          "internalType": "bool",
          "name": "approved",
          "type": "bool"
        }
      ],
      "name": "setApprovalForAll",
      "outputs": [],
      "stateMutability": "nonpayable",
      "type": "function"
    },
    {
      "inputs": [
        {
          "internalType": "string",
          "name": "baseURI",
          "type": "string"
        }
      ],
      "name": "setBaseURI",
      "outputs": [],
      "stateMutability": "nonpayable",
      "type": "function"
    },
    {
      "inputs": [
        {
          "internalType": "bool",
          "name": "_isPublicSaleActive",
          "type": "bool"
        }
      ],
      "name": "setIsPublicSaleActive",
      "outputs": [],
      "stateMutability": "nonpayable",
      "type": "function"
    },
    {
      "inputs": [
        {
          "internalType": "uint256",
          "name": "_limit",
          "type": "uint256"
        }
      ],
      "name": "setMaxLimitPerTransaction",
      "outputs": [],
      "stateMutability": "nonpayable",
      "type": "function"
    },
    {
      "inputs": [
        {
          "internalType": "uint256",
          "name": "_numfreemints",
          "type": "uint256"
        }
      ],
      "name": "setNumFreeMints",
      "outputs": [],
      "stateMutability": "nonpayable",
      "type": "function"
    },
    {
      "inputs": [
        {
          "internalType": "uint256",
          "name": "_price",
          "type": "uint256"
        }
      ],
      "name": "setSalePrice",
      "outputs": [],
      "stateMutability": "nonpayable",
      "type": "function"
    },
    {
      "inputs": [
        {
          "internalType": "bytes4",
          "name": "interfaceId",
          "type": "bytes4"
        }
      ],
      "name": "supportsInterface",
      "outputs": [
        {
          "internalType": "bool",
          "name": "",
          "type": "bool"
        }
      ],
      "stateMutability": "view",
      "type": "function"
    },
    {
      "inputs": [],
      "name": "symbol",
      "outputs": [
        {
          "internalType": "string",
          "name": "",
          "type": "string"
        }
      ],
      "stateMutability": "view",
      "type": "function"
    },
    {
      "inputs": [
        {
          "internalType": "uint256",
          "name": "index",
          "type": "uint256"
        }
      ],
      "name": "tokenByIndex",
      "outputs": [
        {
          "internalType": "uint256",
          "name": "",
          "type": "uint256"
        }
      ],
      "stateMutability": "view",
      "type": "function"
    },
    {
      "inputs": [
        {
          "internalType": "address",
          "name": "owner",
          "type": "address"
        },
        {
          "internalType": "uint256",
          "name": "index",
          "type": "uint256"
        }
      ],
      "name": "tokenOfOwnerByIndex",
      "outputs": [
        {
          "internalType": "uint256",
          "name": "",
          "type": "uint256"
        }
      ],
      "stateMutability": "view",
      "type": "function"
    },
    {
      "inputs": [
        {
          "internalType": "uint256",
          "name": "_tokenId",
          "type": "uint256"
        }
      ],
      "name": "tokenURI",
      "outputs": [
        {
          "internalType": "string",
          "name": "",
          "type": "string"
        }
      ],
      "stateMutability": "view",
      "type": "function"
    },
    {
      "inputs": [],
      "name": "totalSupply",
      "outputs": [
        {
          "internalType": "uint256",
          "name": "",
          "type": "uint256"
        }
      ],
      "stateMutability": "view",
      "type": "function"
    },
    {
      "inputs": [
        {
          "internalType": "address",
          "name": "from",
          "type": "address"
        },
        {
          "internalType": "address",
          "name": "to",
          "type": "address"
        },
        {
          "internalType": "uint256",
          "name": "tokenId",
          "type": "uint256"
        }
      ],
      "name": "transferFrom",
      "outputs": [],
      "stateMutability": "nonpayable",
      "type": "function"
    },
    {
      "inputs": [
        {
          "internalType": "address",
          "name": "newOwner",
          "type": "address"
        }
      ],
      "name": "transferOwnership",
      "outputs": [],
      "stateMutability": "nonpayable",
      "type": "function"
    },
    {
      "inputs": [
        {
          "internalType": "uint256",
          "name": "quantity",
          "type": "uint256"
        },
        {
          "internalType": "address",
          "name": "user",
          "type": "address"
        }
      ],
      "name": "treasuryMint",
      "outputs": [],
      "stateMutability": "nonpayable",
      "type": "function"
    },
    {
      "inputs": [],
      "name": "withdraw",
      "outputs": [],
      "stateMutability": "nonpayable",
      "type": "function"
    }
  ],
  "bytecode": "0x6080604052604051806060016040528060358152602001620042fb60359139600990805190602001906200003592919062000255565b506115b3600a556014600b556002600c55661ff973cafa8000600d556115b3600e556001600f60006101000a81548160ff0219169083151502179055503480156200007f57600080fd5b506040518060400160405280600981526020017f4675636b617761696900000000000000000000000000000000000000000000008152506040518060400160405280600381526020017f46434b000000000000000000000000000000000000000000000000000000000081525081600190805190602001906200010492919062000255565b5060016000806101000a8154816fffffffffffffffffffffffffffffffff02191690836fffffffffffffffffffffffffffffffff16021790555080600290805190602001906200015692919062000255565b505050620001796200016d6200018760201b60201c565b6200018f60201b60201c565b60016008819055506200036a565b600033905090565b6000600760009054906101000a900473ffffffffffffffffffffffffffffffffffffffff16905081600760006101000a81548173ffffffffffffffffffffffffffffffffffffffff021916908373ffffffffffffffffffffffffffffffffffffffff1602179055508173ffffffffffffffffffffffffffffffffffffffff168173ffffffffffffffffffffffffffffffffffffffff167f8be0079c531659141344cd1fd0a4f28419497f9722a3daafe3b4186f6b6457e060405160405180910390a35050565b828054620002639062000305565b90600052602060002090601f016020900481019282620002875760008555620002d3565b82601f10620002a257805160ff1916838001178555620002d3565b82800160010185558215620002d3579182015b82811115620002d2578251825591602001919060010190620002b5565b5b509050620002e29190620002e6565b5090565b5b8082111562000301576000816000905550600101620002e7565b5090565b600060028204905060018216806200031e57607f821691505b602082108114156200033557620003346200033b565b5b50919050565b7f4e487b7100000000000000000000000000000000000000000000000000000000600052602260045260246000fd5b613f81806200037a6000396000f3fe6080604052600436106101f95760003560e01c80636352211e1161010d578063a22cb465116100a0578063d547cfb71161006f578063d547cfb714610710578063d5abeb011461073b578063e985e9c514610766578063f2a3013e146107a3578063f2fde38b146107cc576101f9565b8063a22cb46514610656578063b88d4fde1461067f578063c6a91b42146106a8578063c87b56dd146106d3576101f9565b80638da5cb5b116100dc5780638da5cb5b146105bb57806395d89b41146105e65780639e9fcffc14610611578063a0712d681461063a576101f9565b80636352211e146104ff57806366cb8f991461053c57806370a0823114610567578063715018a6146105a4576101f9565b80631919fed7116101905780632f745c591161015f5780632f745c591461041c5780633ccfd60b1461045957806342842e0e146104705780634f6ccce71461049957806355f804b3146104d6576101f9565b80631919fed7146103765780631e84c4131461039f57806323b872dd146103ca57806328cad13d146103f3576101f9565b8063089d4665116101cc578063089d4665146102ce578063095ea7b3146102f95780630a00ae831461032257806318160ddd1461034b576101f9565b806301ffc9a7146101fe57806306fdde031461023b57806307e89ec014610266578063081812fc14610291575b600080fd5b34801561020a57600080fd5b50610225600480360381019061022091906131d3565b6107f5565b6040516102329190613697565b60405180910390f35b34801561024757600080fd5b5061025061093f565b60405161025d91906136b2565b60405180910390f35b34801561027257600080fd5b5061027b6109d1565b6040516102889190613814565b60405180910390f35b34801561029d57600080fd5b506102b860048036038101906102b39190613266565b6109d7565b6040516102c59190613630565b60405180910390f35b3480156102da57600080fd5b506102e3610a53565b6040516102f09190613814565b60405180910390f35b34801561030557600080fd5b50610320600480360381019061031b919061316e565b610a59565b005b34801561032e57600080fd5b5061034960048036038101906103449190613266565b610b64565b005b34801561035757600080fd5b50610360610bea565b60405161036d9190613814565b60405180910390f35b34801561038257600080fd5b5061039d60048036038101906103989190613266565b610c3f565b005b3480156103ab57600080fd5b506103b4610cc5565b6040516103c19190613697565b60405180910390f35b3480156103d657600080fd5b506103f160048036038101906103ec9190613068565b610cd8565b005b3480156103ff57600080fd5b5061041a600480360381019061041591906131aa565b610ce8565b005b34801561042857600080fd5b50610443600480360381019061043e919061316e565b610d81565b6040516104509190613814565b60405180910390f35b34801561046557600080fd5b5061046e610f88565b005b34801561047c57600080fd5b5061049760048036038101906104929190613068565b611066565b005b3480156104a557600080fd5b506104c060048036038101906104bb9190613266565b611086565b6040516104cd9190613814565b60405180910390f35b3480156104e257600080fd5b506104fd60048036038101906104f89190613225565b6111f7565b005b34801561050b57600080fd5b5061052660048036038101906105219190613266565b61128d565b6040516105339190613630565b60405180910390f35b34801561054857600080fd5b506105516112a3565b60405161055e9190613814565b60405180910390f35b34801561057357600080fd5b5061058e60048036038101906105899190613003565b6112a9565b60405161059b9190613814565b60405180910390f35b3480156105b057600080fd5b506105b9611379565b005b3480156105c757600080fd5b506105d0611401565b6040516105dd9190613630565b60405180910390f35b3480156105f257600080fd5b506105fb61142b565b60405161060891906136b2565b60405180910390f35b34801561061d57600080fd5b5061063860048036038101906106339190613266565b6114bd565b005b610654600480360381019061064f9190613266565b611543565b005b34801561066257600080fd5b5061067d60048036038101906106789190613132565b611618565b005b34801561068b57600080fd5b506106a660048036038101906106a191906130b7565b611790565b005b3480156106b457600080fd5b506106bd6117e3565b6040516106ca9190613814565b60405180910390f35b3480156106df57600080fd5b506106fa60048036038101906106f59190613266565b6117e9565b60405161070791906136b2565b60405180910390f35b34801561071c57600080fd5b50610725611865565b60405161073291906136b2565b60405180910390f35b34801561074757600080fd5b506107506118f3565b60405161075d9190613814565b60405180910390f35b34801561077257600080fd5b5061078d6004803603810190610788919061302c565b6118f9565b60405161079a9190613697565b60405180910390f35b3480156107af57600080fd5b506107ca60048036038101906107c5919061328f565b61198d565b005b3480156107d857600080fd5b506107f360048036038101906107ee9190613003565b611ab1565b005b60007f80ac58cd000000000000000000000000000000000000000000000000000000007bffffffffffffffffffffffffffffffffffffffffffffffffffffffff1916827bffffffffffffffffffffffffffffffffffffffffffffffffffffffff191614806108c057507f5b5e139f000000000000000000000000000000000000000000000000000000007bffffffffffffffffffffffffffffffffffffffffffffffffffffffff1916827bffffffffffffffffffffffffffffffffffffffffffffffffffffffff1916145b8061092857507f780e9d63000000000000000000000000000000000000000000000000000000007bffffffffffffffffffffffffffffffffffffffffffffffffffffffff1916827bffffffffffffffffffffffffffffffffffffffffffffffffffffffff1916145b80610938575061093782611ba9565b5b9050919050565b60606001805461094e90613ae4565b80601f016020809104026020016040519081016040528092919081815260200182805461097a90613ae4565b80156109c75780601f1061099c576101008083540402835291602001916109c7565b820191906000526020600020905b8154815290600101906020018083116109aa57829003601f168201915b5050505050905090565b600d5481565b60006109e282611c13565b610a18576040517fcf4700e400000000000000000000000000000000000000000000000000000000815260040160405180910390fd5b6005600083815260200190815260200160002060009054906101000a900473ffffffffffffffffffffffffffffffffffffffff169050919050565b600e5481565b6000610a648261128d565b90508073ffffffffffffffffffffffffffffffffffffffff168373ffffffffffffffffffffffffffffffffffffffff161415610acc576040517f943f7b8c00000000000000000000000000000000000000000000000000000000815260040160405180910390fd5b8073ffffffffffffffffffffffffffffffffffffffff16610aeb611c7b565b73ffffffffffffffffffffffffffffffffffffffff1614158015610b1d5750610b1b81610b16611c7b565b6118f9565b155b15610b54576040517fcfb3b94200000000000000000000000000000000000000000000000000000000815260040160405180910390fd5b610b5f838383611c83565b505050565b610b6c611c7b565b73ffffffffffffffffffffffffffffffffffffffff16610b8a611401565b73ffffffffffffffffffffffffffffffffffffffff1614610be0576040517f08c379a0000000000000000000000000000000000000000000000000000000008152600401610bd790613754565b60405180910390fd5b80600e8190555050565b60008060109054906101000a90046fffffffffffffffffffffffffffffffff1660008054906101000a90046fffffffffffffffffffffffffffffffff16036fffffffffffffffffffffffffffffffff16905090565b610c47611c7b565b73ffffffffffffffffffffffffffffffffffffffff16610c65611401565b73ffffffffffffffffffffffffffffffffffffffff1614610cbb576040517f08c379a0000000000000000000000000000000000000000000000000000000008152600401610cb290613754565b60405180910390fd5b80600d8190555050565b600f60009054906101000a900460ff1681565b610ce3838383611d35565b505050565b610cf0611c7b565b73ffffffffffffffffffffffffffffffffffffffff16610d0e611401565b73ffffffffffffffffffffffffffffffffffffffff1614610d64576040517f08c379a0000000000000000000000000000000000000000000000000000000008152600401610d5b90613754565b60405180910390fd5b80600f60006101000a81548160ff02191690831515021790555050565b6000610d8c836112a9565b8210610dc4576040517f0ddac30e00000000000000000000000000000000000000000000000000000000815260040160405180910390fd5b60008060009054906101000a90046fffffffffffffffffffffffffffffffff166fffffffffffffffffffffffffffffffff16905060008060005b83811015610f7c576000600360008381526020019081526020016000206040518060600160405290816000820160009054906101000a900473ffffffffffffffffffffffffffffffffffffffff1673ffffffffffffffffffffffffffffffffffffffff1673ffffffffffffffffffffffffffffffffffffffff1681526020016000820160149054906101000a900467ffffffffffffffff1667ffffffffffffffff1667ffffffffffffffff16815260200160008201601c9054906101000a900460ff1615151515815250509050806040015115610edb5750610f6f565b600073ffffffffffffffffffffffffffffffffffffffff16816000015173ffffffffffffffffffffffffffffffffffffffff1614610f1b57806000015192505b8773ffffffffffffffffffffffffffffffffffffffff168373ffffffffffffffffffffffffffffffffffffffff161415610f6d5786841415610f64578195505050505050610f82565b83806001019450505b505b8080600101915050610dfe565b50600080fd5b92915050565b610f90611c7b565b73ffffffffffffffffffffffffffffffffffffffff16610fae611401565b73ffffffffffffffffffffffffffffffffffffffff1614611004576040517f08c379a0000000000000000000000000000000000000000000000000000000008152600401610ffb90613754565b60405180910390fd5b6002600854141561104a576040517f08c379a0000000000000000000000000000000000000000000000000000000008152600401611041906137d4565b60405180910390fd5b600260088190555061105c3347612252565b6001600881905550565b61108183838360405180602001604052806000815250611790565b505050565b60008060008054906101000a90046fffffffffffffffffffffffffffffffff166fffffffffffffffffffffffffffffffff1690506000805b828110156111bf576000600360008381526020019081526020016000206040518060600160405290816000820160009054906101000a900473ffffffffffffffffffffffffffffffffffffffff1673ffffffffffffffffffffffffffffffffffffffff1673ffffffffffffffffffffffffffffffffffffffff1681526020016000820160149054906101000a900467ffffffffffffffff1667ffffffffffffffff1667ffffffffffffffff16815260200160008201601c9054906101000a900460ff161515151581525050905080604001516111b157858314156111a857819450505050506111f2565b82806001019350505b5080806001019150506110be565b506040517fa723001c00000000000000000000000000000000000000000000000000000000815260040160405180910390fd5b919050565b6111ff611c7b565b73ffffffffffffffffffffffffffffffffffffffff1661121d611401565b73ffffffffffffffffffffffffffffffffffffffff1614611273576040517f08c379a000000000000000000000000000000000000000000000000000000000815260040161126a90613754565b60405180910390fd5b8060099080519060200190611289929190612de4565b5050565b600061129882612346565b600001519050919050565b600c5481565b60008073ffffffffffffffffffffffffffffffffffffffff168273ffffffffffffffffffffffffffffffffffffffff161415611311576040517f8f4eb60400000000000000000000000000000000000000000000000000000000815260040160405180910390fd5b600460008373ffffffffffffffffffffffffffffffffffffffff1673ffffffffffffffffffffffffffffffffffffffff16815260200190815260200160002060000160009054906101000a900467ffffffffffffffff1667ffffffffffffffff169050919050565b611381611c7b565b73ffffffffffffffffffffffffffffffffffffffff1661139f611401565b73ffffffffffffffffffffffffffffffffffffffff16146113f5576040517f08c379a00000000000000000000000000000000000000000000000000000000081526004016113ec90613754565b60405180910390fd5b6113ff60006125ee565b565b6000600760009054906101000a900473ffffffffffffffffffffffffffffffffffffffff16905090565b60606002805461143a90613ae4565b80601f016020809104026020016040519081016040528092919081815260200182805461146690613ae4565b80156114b35780601f10611488576101008083540402835291602001916114b3565b820191906000526020600020905b81548152906001019060200180831161149657829003601f168201915b5050505050905090565b6114c5611c7b565b73ffffffffffffffffffffffffffffffffffffffff166114e3611401565b73ffffffffffffffffffffffffffffffffffffffff1614611539576040517f08c379a000000000000000000000000000000000000000000000000000000000815260040161153090613754565b60405180910390fd5b80600b8190555050565b600f60009054906101000a900460ff16611592576040517f08c379a0000000000000000000000000000000000000000000000000000000008152600401611589906137f4565b60405180910390fd5b600e548161159e610bea565b6115a89190613919565b11806115b55750600c5481115b1561160b573481600d546115c991906139a0565b111561160a576040517f08c379a0000000000000000000000000000000000000000000000000000000008152600401611601906137b4565b60405180910390fd5b5b61161533826126b4565b50565b611620611c7b565b73ffffffffffffffffffffffffffffffffffffffff168273ffffffffffffffffffffffffffffffffffffffff161415611685576040517fb06307db00000000000000000000000000000000000000000000000000000000815260040160405180910390fd5b8060066000611692611c7b565b73ffffffffffffffffffffffffffffffffffffffff1673ffffffffffffffffffffffffffffffffffffffff16815260200190815260200160002060008473ffffffffffffffffffffffffffffffffffffffff1673ffffffffffffffffffffffffffffffffffffffff16815260200190815260200160002060006101000a81548160ff0219169083151502179055508173ffffffffffffffffffffffffffffffffffffffff1661173f611c7b565b73ffffffffffffffffffffffffffffffffffffffff167f17307eab39ab6107e8899845ad3d59bd9653f200f220920489ca2b5937696c31836040516117849190613697565b60405180910390a35050565b61179b848484611d35565b6117a7848484846126d2565b6117dd576040517fd1a57ed600000000000000000000000000000000000000000000000000000000815260040160405180910390fd5b50505050565b600b5481565b60606117f482611c13565b611833576040517f08c379a000000000000000000000000000000000000000000000000000000000815260040161182a90613774565b60405180910390fd5b600961183e83612860565b60405160200161184f9291906135e1565b6040516020818303038152906040529050919050565b6009805461187290613ae4565b80601f016020809104026020016040519081016040528092919081815260200182805461189e90613ae4565b80156118eb5780601f106118c0576101008083540402835291602001916118eb565b820191906000526020600020905b8154815290600101906020018083116118ce57829003601f168201915b505050505081565b600a5481565b6000600660008473ffffffffffffffffffffffffffffffffffffffff1673ffffffffffffffffffffffffffffffffffffffff16815260200190815260200160002060008373ffffffffffffffffffffffffffffffffffffffff1673ffffffffffffffffffffffffffffffffffffffff16815260200190815260200160002060009054906101000a900460ff16905092915050565b611995611c7b565b73ffffffffffffffffffffffffffffffffffffffff166119b3611401565b73ffffffffffffffffffffffffffffffffffffffff1614611a09576040517f08c379a0000000000000000000000000000000000000000000000000000000008152600401611a0090613754565b60405180910390fd5b60008211611a4c576040517f08c379a0000000000000000000000000000000000000000000000000000000008152600401611a4390613794565b60405180910390fd5b600a5482611a58610bea565b611a629190613919565b1115611aa3576040517f08c379a0000000000000000000000000000000000000000000000000000000008152600401611a9a90613734565b60405180910390fd5b611aad81836126b4565b5050565b611ab9611c7b565b73ffffffffffffffffffffffffffffffffffffffff16611ad7611401565b73ffffffffffffffffffffffffffffffffffffffff1614611b2d576040517f08c379a0000000000000000000000000000000000000000000000000000000008152600401611b2490613754565b60405180910390fd5b600073ffffffffffffffffffffffffffffffffffffffff168173ffffffffffffffffffffffffffffffffffffffff161415611b9d576040517f08c379a0000000000000000000000000000000000000000000000000000000008152600401611b94906136d4565b60405180910390fd5b611ba6816125ee565b50565b60007f01ffc9a7000000000000000000000000000000000000000000000000000000007bffffffffffffffffffffffffffffffffffffffffffffffffffffffff1916827bffffffffffffffffffffffffffffffffffffffffffffffffffffffff1916149050919050565b60008060009054906101000a90046fffffffffffffffffffffffffffffffff166fffffffffffffffffffffffffffffffff1682108015611c74575060036000838152602001908152602001600020600001601c9054906101000a900460ff16155b9050919050565b600033905090565b826005600084815260200190815260200160002060006101000a81548173ffffffffffffffffffffffffffffffffffffffff021916908373ffffffffffffffffffffffffffffffffffffffff160217905550818373ffffffffffffffffffffffffffffffffffffffff168273ffffffffffffffffffffffffffffffffffffffff167f8c5be1e5ebec7d5bd14f71427d1e84f3dd0314c0f7b2291e5b200ac8c7c3b92560405160405180910390a4505050565b6000611d4082612346565b90506000816000015173ffffffffffffffffffffffffffffffffffffffff16611d67611c7b565b73ffffffffffffffffffffffffffffffffffffffff161480611d9a5750611d998260000151611d94611c7b565b6118f9565b5b80611ddf5750611da8611c7b565b73ffffffffffffffffffffffffffffffffffffffff16611dc7846109d7565b73ffffffffffffffffffffffffffffffffffffffff16145b905080611e18576040517f59c896be00000000000000000000000000000000000000000000000000000000815260040160405180910390fd5b8473ffffffffffffffffffffffffffffffffffffffff16826000015173ffffffffffffffffffffffffffffffffffffffff1614611e81576040517fa114810000000000000000000000000000000000000000000000000000000000815260040160405180910390fd5b600073ffffffffffffffffffffffffffffffffffffffff168473ffffffffffffffffffffffffffffffffffffffff161415611ee8576040517fea553b3400000000000000000000000000000000000000000000000000000000815260040160405180910390fd5b611ef58585856001612a0d565b611f056000848460000151611c83565b6001600460008773ffffffffffffffffffffffffffffffffffffffff1673ffffffffffffffffffffffffffffffffffffffff16815260200190815260200160002060000160008282829054906101000a900467ffffffffffffffff160392506101000a81548167ffffffffffffffff021916908367ffffffffffffffff1602179055506001600460008673ffffffffffffffffffffffffffffffffffffffff1673ffffffffffffffffffffffffffffffffffffffff16815260200190815260200160002060000160008282829054906101000a900467ffffffffffffffff160192506101000a81548167ffffffffffffffff021916908367ffffffffffffffff160217905550836003600085815260200190815260200160002060000160006101000a81548173ffffffffffffffffffffffffffffffffffffffff021916908373ffffffffffffffffffffffffffffffffffffffff160217905550426003600085815260200190815260200160002060000160146101000a81548167ffffffffffffffff021916908367ffffffffffffffff1602179055506000600184019050600073ffffffffffffffffffffffffffffffffffffffff166003600083815260200190815260200160002060000160009054906101000a900473ffffffffffffffffffffffffffffffffffffffff1673ffffffffffffffffffffffffffffffffffffffff1614156121e25760008054906101000a90046fffffffffffffffffffffffffffffffff166fffffffffffffffffffffffffffffffff168110156121e15782600001516003600083815260200190815260200160002060000160006101000a81548173ffffffffffffffffffffffffffffffffffffffff021916908373ffffffffffffffffffffffffffffffffffffffff16021790555082602001516003600083815260200190815260200160002060000160146101000a81548167ffffffffffffffff021916908367ffffffffffffffff1602179055505b5b50828473ffffffffffffffffffffffffffffffffffffffff168673ffffffffffffffffffffffffffffffffffffffff167fddf252ad1be2c89b69c2b068fc378daa952ba7f163c4a11628f55a4df523b3ef60405160405180910390a461224b8585856001612a13565b5050505050565b80471015612295576040517f08c379a000000000000000000000000000000000000000000000000000000000815260040161228c90613714565b60405180910390fd5b60008273ffffffffffffffffffffffffffffffffffffffff16826040516122bb9061361b565b60006040518083038185875af1925050503d80600081146122f8576040519150601f19603f3d011682016040523d82523d6000602084013e6122fd565b606091505b5050905080612341576040517f08c379a0000000000000000000000000000000000000000000000000000000008152600401612338906136f4565b60405180910390fd5b505050565b61234e612e6a565b600082905060008054906101000a90046fffffffffffffffffffffffffffffffff166fffffffffffffffffffffffffffffffff168110156125b7576000600360008381526020019081526020016000206040518060600160405290816000820160009054906101000a900473ffffffffffffffffffffffffffffffffffffffff1673ffffffffffffffffffffffffffffffffffffffff1673ffffffffffffffffffffffffffffffffffffffff1681526020016000820160149054906101000a900467ffffffffffffffff1667ffffffffffffffff1667ffffffffffffffff16815260200160008201601c9054906101000a900460ff161515151581525050905080604001516125b557600073ffffffffffffffffffffffffffffffffffffffff16816000015173ffffffffffffffffffffffffffffffffffffffff16146124995780925050506125e9565b5b6001156125b457818060019003925050600360008381526020019081526020016000206040518060600160405290816000820160009054906101000a900473ffffffffffffffffffffffffffffffffffffffff1673ffffffffffffffffffffffffffffffffffffffff1673ffffffffffffffffffffffffffffffffffffffff1681526020016000820160149054906101000a900467ffffffffffffffff1667ffffffffffffffff1667ffffffffffffffff16815260200160008201601c9054906101000a900460ff1615151515815250509050600073ffffffffffffffffffffffffffffffffffffffff16816000015173ffffffffffffffffffffffffffffffffffffffff16146125af5780925050506125e9565b61249a565b5b505b6040517fdf2d9b4200000000000000000000000000000000000000000000000000000000815260040160405180910390fd5b919050565b6000600760009054906101000a900473ffffffffffffffffffffffffffffffffffffffff16905081600760006101000a81548173ffffffffffffffffffffffffffffffffffffffff021916908373ffffffffffffffffffffffffffffffffffffffff1602179055508173ffffffffffffffffffffffffffffffffffffffff168173ffffffffffffffffffffffffffffffffffffffff167f8be0079c531659141344cd1fd0a4f28419497f9722a3daafe3b4186f6b6457e060405160405180910390a35050565b6126ce828260405180602001604052806000815250612a19565b5050565b60006126f38473ffffffffffffffffffffffffffffffffffffffff16612a2b565b15612853578373ffffffffffffffffffffffffffffffffffffffff1663150b7a0261271c611c7b565b8786866040518563ffffffff1660e01b815260040161273e949392919061364b565b602060405180830381600087803b15801561275857600080fd5b505af192505050801561278957506040513d601f19601f8201168201806040525081019061278691906131fc565b60015b612803573d80600081146127b9576040519150601f19603f3d011682016040523d82523d6000602084013e6127be565b606091505b506000815114156127fb576040517fd1a57ed600000000000000000000000000000000000000000000000000000000815260040160405180910390fd5b805181602001fd5b63150b7a0260e01b7bffffffffffffffffffffffffffffffffffffffffffffffffffffffff1916817bffffffffffffffffffffffffffffffffffffffffffffffffffffffff191614915050612858565b600190505b949350505050565b606060008214156128a8576040518060400160405280600181526020017f30000000000000000000000000000000000000000000000000000000000000008152509050612a08565b600082905060005b600082146128da5780806128c390613b47565b915050600a826128d3919061396f565b91506128b0565b60008167ffffffffffffffff81111561291c577f4e487b7100000000000000000000000000000000000000000000000000000000600052604160045260246000fd5b6040519080825280601f01601f19166020018201604052801561294e5781602001600182028036833780820191505090505b5090505b60008514612a015760018261296791906139fa565b9150600a856129769190613b90565b60306129829190613919565b60f81b8183815181106129be577f4e487b7100000000000000000000000000000000000000000000000000000000600052603260045260246000fd5b60200101907effffffffffffffffffffffffffffffffffffffffffffffffffffffffffffff1916908160001a905350600a856129fa919061396f565b9450612952565b8093505050505b919050565b50505050565b50505050565b612a268383836001612a4e565b505050565b6000808273ffffffffffffffffffffffffffffffffffffffff163b119050919050565b60008060009054906101000a90046fffffffffffffffffffffffffffffffff166fffffffffffffffffffffffffffffffff169050600073ffffffffffffffffffffffffffffffffffffffff168573ffffffffffffffffffffffffffffffffffffffff161415612ae9576040517f2e07630000000000000000000000000000000000000000000000000000000000815260040160405180910390fd5b6000841415612b24576040517fb562e8dd00000000000000000000000000000000000000000000000000000000815260040160405180910390fd5b612b316000868387612a0d565b83600460008773ffffffffffffffffffffffffffffffffffffffff1673ffffffffffffffffffffffffffffffffffffffff16815260200190815260200160002060000160008282829054906101000a900467ffffffffffffffff160192506101000a81548167ffffffffffffffff021916908367ffffffffffffffff16021790555083600460008773ffffffffffffffffffffffffffffffffffffffff1673ffffffffffffffffffffffffffffffffffffffff16815260200190815260200160002060000160088282829054906101000a900467ffffffffffffffff160192506101000a81548167ffffffffffffffff021916908367ffffffffffffffff160217905550846003600083815260200190815260200160002060000160006101000a81548173ffffffffffffffffffffffffffffffffffffffff021916908373ffffffffffffffffffffffffffffffffffffffff160217905550426003600083815260200190815260200160002060000160146101000a81548167ffffffffffffffff021916908367ffffffffffffffff160217905550600081905060005b85811015612d9657818773ffffffffffffffffffffffffffffffffffffffff16600073ffffffffffffffffffffffffffffffffffffffff167fddf252ad1be2c89b69c2b068fc378daa952ba7f163c4a11628f55a4df523b3ef60405160405180910390a4838015612d4a5750612d4860008884886126d2565b155b15612d81576040517fd1a57ed600000000000000000000000000000000000000000000000000000000815260040160405180910390fd5b81806001019250508080600101915050612ccf565b50806000806101000a8154816fffffffffffffffffffffffffffffffff02191690836fffffffffffffffffffffffffffffffff16021790555050612ddd6000868387612a13565b5050505050565b828054612df090613ae4565b90600052602060002090601f016020900481019282612e125760008555612e59565b82601f10612e2b57805160ff1916838001178555612e59565b82800160010185558215612e59579182015b82811115612e58578251825591602001919060010190612e3d565b5b509050612e669190612ead565b5090565b6040518060600160405280600073ffffffffffffffffffffffffffffffffffffffff168152602001600067ffffffffffffffff1681526020016000151581525090565b5b80821115612ec6576000816000905550600101612eae565b5090565b6000612edd612ed884613854565b61382f565b905082815260208101848484011115612ef557600080fd5b612f00848285613aa2565b509392505050565b6000612f1b612f1684613885565b61382f565b905082815260208101848484011115612f3357600080fd5b612f3e848285613aa2565b509392505050565b600081359050612f5581613eef565b92915050565b600081359050612f6a81613f06565b92915050565b600081359050612f7f81613f1d565b92915050565b600081519050612f9481613f1d565b92915050565b600082601f830112612fab57600080fd5b8135612fbb848260208601612eca565b91505092915050565b600082601f830112612fd557600080fd5b8135612fe5848260208601612f08565b91505092915050565b600081359050612ffd81613f34565b92915050565b60006020828403121561301557600080fd5b600061302384828501612f46565b91505092915050565b6000806040838503121561303f57600080fd5b600061304d85828601612f46565b925050602061305e85828601612f46565b9150509250929050565b60008060006060848603121561307d57600080fd5b600061308b86828701612f46565b935050602061309c86828701612f46565b92505060406130ad86828701612fee565b9150509250925092565b600080600080608085870312156130cd57600080fd5b60006130db87828801612f46565b94505060206130ec87828801612f46565b93505060406130fd87828801612fee565b925050606085013567ffffffffffffffff81111561311a57600080fd5b61312687828801612f9a565b91505092959194509250565b6000806040838503121561314557600080fd5b600061315385828601612f46565b925050602061316485828601612f5b565b9150509250929050565b6000806040838503121561318157600080fd5b600061318f85828601612f46565b92505060206131a085828601612fee565b9150509250929050565b6000602082840312156131bc57600080fd5b60006131ca84828501612f5b565b91505092915050565b6000602082840312156131e557600080fd5b60006131f384828501612f70565b91505092915050565b60006020828403121561320e57600080fd5b600061321c84828501612f85565b91505092915050565b60006020828403121561323757600080fd5b600082013567ffffffffffffffff81111561325157600080fd5b61325d84828501612fc4565b91505092915050565b60006020828403121561327857600080fd5b600061328684828501612fee565b91505092915050565b600080604083850312156132a257600080fd5b60006132b085828601612fee565b92505060206132c185828601612f46565b9150509250929050565b6132d481613a2e565b82525050565b6132e381613a40565b82525050565b60006132f4826138cb565b6132fe81856138e1565b935061330e818560208601613ab1565b61331781613c7d565b840191505092915050565b600061332d826138d6565b61333781856138fd565b9350613347818560208601613ab1565b61335081613c7d565b840191505092915050565b6000613366826138d6565b613370818561390e565b9350613380818560208601613ab1565b80840191505092915050565b6000815461339981613ae4565b6133a3818661390e565b945060018216600081146133be57600181146133cf57613402565b60ff19831686528186019350613402565b6133d8856138b6565b60005b838110156133fa578154818901526001820191506020810190506133db565b838801955050505b50505092915050565b60006134186026836138fd565b915061342382613c8e565b604082019050919050565b600061343b603a836138fd565b915061344682613cdd565b604082019050919050565b600061345e601d836138fd565b915061346982613d2c565b602082019050919050565b60006134816017836138fd565b915061348c82613d55565b602082019050919050565b60006134a460058361390e565b91506134af82613d7e565b600582019050919050565b60006134c76020836138fd565b91506134d282613da7565b602082019050919050565b60006134ea602f836138fd565b91506134f582613dd0565b604082019050919050565b600061350d6000836138f2565b915061351882613e1f565b600082019050919050565b60006135306013836138fd565b915061353b82613e22565b602082019050919050565b60006135536018836138fd565b915061355e82613e4b565b602082019050919050565b6000613576601f836138fd565b915061358182613e74565b602082019050919050565b60006135996017836138fd565b91506135a482613e9d565b602082019050919050565b60006135bc60018361390e565b91506135c782613ec6565b600182019050919050565b6135db81613a98565b82525050565b60006135ed828561338c565b91506135f8826135af565b9150613604828461335b565b915061360f82613497565b91508190509392505050565b600061362682613500565b9150819050919050565b600060208201905061364560008301846132cb565b92915050565b600060808201905061366060008301876132cb565b61366d60208301866132cb565b61367a60408301856135d2565b818103606083015261368c81846132e9565b905095945050505050565b60006020820190506136ac60008301846132da565b92915050565b600060208201905081810360008301526136cc8184613322565b905092915050565b600060208201905081810360008301526136ed8161340b565b9050919050565b6000602082019050818103600083015261370d8161342e565b9050919050565b6000602082019050818103600083015261372d81613451565b9050919050565b6000602082019050818103600083015261374d81613474565b9050919050565b6000602082019050818103600083015261376d816134ba565b9050919050565b6000602082019050818103600083015261378d816134dd565b9050919050565b600060208201905081810360008301526137ad81613523565b9050919050565b600060208201905081810360008301526137cd81613546565b9050919050565b600060208201905081810360008301526137ed81613569565b9050919050565b6000602082019050818103600083015261380d8161358c565b9050919050565b600060208201905061382960008301846135d2565b92915050565b600061383961384a565b90506138458282613b16565b919050565b6000604051905090565b600067ffffffffffffffff82111561386f5761386e613c4e565b5b61387882613c7d565b9050602081019050919050565b600067ffffffffffffffff8211156138a05761389f613c4e565b5b6138a982613c7d565b9050602081019050919050565b60008190508160005260206000209050919050565b600081519050919050565b600081519050919050565b600082825260208201905092915050565b600081905092915050565b600082825260208201905092915050565b600081905092915050565b600061392482613a98565b915061392f83613a98565b9250827fffffffffffffffffffffffffffffffffffffffffffffffffffffffffffffffff0382111561396457613963613bc1565b5b828201905092915050565b600061397a82613a98565b915061398583613a98565b92508261399557613994613bf0565b5b828204905092915050565b60006139ab82613a98565b91506139b683613a98565b9250817fffffffffffffffffffffffffffffffffffffffffffffffffffffffffffffffff04831182151516156139ef576139ee613bc1565b5b828202905092915050565b6000613a0582613a98565b9150613a1083613a98565b925082821015613a2357613a22613bc1565b5b828203905092915050565b6000613a3982613a78565b9050919050565b60008115159050919050565b60007fffffffff0000000000000000000000000000000000000000000000000000000082169050919050565b600073ffffffffffffffffffffffffffffffffffffffff82169050919050565b6000819050919050565b82818337600083830152505050565b60005b83811015613acf578082015181840152602081019050613ab4565b83811115613ade576000848401525b50505050565b60006002820490506001821680613afc57607f821691505b60208210811415613b1057613b0f613c1f565b5b50919050565b613b1f82613c7d565b810181811067ffffffffffffffff82111715613b3e57613b3d613c4e565b5b80604052505050565b6000613b5282613a98565b91507fffffffffffffffffffffffffffffffffffffffffffffffffffffffffffffffff821415613b8557613b84613bc1565b5b600182019050919050565b6000613b9b82613a98565b9150613ba683613a98565b925082613bb657613bb5613bf0565b5b828206905092915050565b7f4e487b7100000000000000000000000000000000000000000000000000000000600052601160045260246000fd5b7f4e487b7100000000000000000000000000000000000000000000000000000000600052601260045260246000fd5b7f4e487b7100000000000000000000000000000000000000000000000000000000600052602260045260246000fd5b7f4e487b7100000000000000000000000000000000000000000000000000000000600052604160045260246000fd5b6000601f19601f8301169050919050565b7f4f776e61626c653a206e6577206f776e657220697320746865207a65726f206160008201527f6464726573730000000000000000000000000000000000000000000000000000602082015250565b7f416464726573733a20756e61626c6520746f2073656e642076616c75652c207260008201527f6563697069656e74206d61792068617665207265766572746564000000000000602082015250565b7f416464726573733a20696e73756666696369656e742062616c616e6365000000600082015250565b7f4d6178696d756d20737570706c79206578636565646564000000000000000000600082015250565b7f2e6a736f6e000000000000000000000000000000000000000000000000000000600082015250565b7f4f776e61626c653a2063616c6c6572206973206e6f7420746865206f776e6572600082015250565b7f4552433732314d657461646174613a2055524920717565727920666f72206e6f60008201527f6e6578697374656e7420746f6b656e0000000000000000000000000000000000602082015250565b50565b7f496e76616c6964206d696e7420616d6f756e7400000000000000000000000000600082015250565b7f496e636f7272656374204554482076616c75652073656e740000000000000000600082015250565b7f5265656e7472616e637947756172643a207265656e7472616e742063616c6c00600082015250565b7f5075626c69632073616c65206973206e6f74206f70656e000000000000000000600082015250565b7f2f00000000000000000000000000000000000000000000000000000000000000600082015250565b613ef881613a2e565b8114613f0357600080fd5b50565b613f0f81613a40565b8114613f1a57600080fd5b50565b613f2681613a4c565b8114613f3157600080fd5b50565b613f3d81613a98565b8114613f4857600080fd5b5056fea26469706673582212201d2cf59fed3c9bb35bd58967e2e728881161bf570037a581f79945b0ba44703964736f6c63430008040033697066733a2f2f516d52457259773866474a6258344e504e7978334772445a476374326473634e55533943634e4a335a516d754272",
  "linkReferences": {},
  "deployedLinkReferences": {}
}